{
  "_format": "hh-sol-artifact-1",
  "contractName": "GratitudeBoard",
  "sourceName": "contracts/GratitudeBoard.sol",
  "abi": [
    {
      "inputs": [],
      "stateMutability": "nonpayable",
      "type": "constructor"
    },
    {
      "anonymous": false,
      "inputs": [
        {
          "indexed": false,
          "internalType": "address",
          "name": "sender",
          "type": "address"
        },
        {
          "indexed": false,
          "internalType": "address",
          "name": "receiver",
          "type": "address"
        },
        {
          "indexed": false,
          "internalType": "string",
          "name": "message",
          "type": "string"
        },
        {
          "indexed": false,
          "internalType": "uint256",
          "name": "amount",
          "type": "uint256"
        }
      ],
      "name": "NewGratitudeEntry",
      "type": "event"
    },
    {
      "inputs": [
        {
          "internalType": "string",
          "name": "message",
          "type": "string"
        },
        {
          "internalType": "address",
          "name": "receiver",
          "type": "address"
        }
      ],
      "name": "createEntry",
      "outputs": [],
      "stateMutability": "payable",
      "type": "function"
    },
    {
      "inputs": [],
      "name": "getYourEntries",
      "outputs": [
        {
          "components": [
            {
              "internalType": "uint256",
              "name": "amount",
              "type": "uint256"
            },
            {
              "internalType": "address",
              "name": "sender",
              "type": "address"
            },
            {
              "internalType": "address",
              "name": "receiver",
              "type": "address"
            },
            {
              "internalType": "string",
              "name": "message",
              "type": "string"
            }
          ],
          "internalType": "struct GratitudeBoard.Gratitude",
          "name": "",
          "type": "tuple"
        }
      ],
      "stateMutability": "view",
      "type": "function"
    },
    {
      "inputs": [
        {
          "internalType": "address",
          "name": "",
          "type": "address"
        }
      ],
      "name": "gratitudeEntries",
      "outputs": [
        {
          "internalType": "uint256",
          "name": "amount",
          "type": "uint256"
        },
        {
          "internalType": "address",
          "name": "sender",
          "type": "address"
        },
        {
          "internalType": "address",
          "name": "receiver",
          "type": "address"
        },
        {
          "internalType": "string",
          "name": "message",
          "type": "string"
        }
      ],
      "stateMutability": "view",
      "type": "function"
    }
  ],
  "bytecode": "0x608060405234801561001057600080fd5b50610708806100206000396000f3fe6080604052600436106100345760003560e01c80633302b288146100395780638513062614610072578063d13dfa8a14610087575b600080fd5b34801561004557600080fd5b50610059610054366004610490565b6100a9565b6040516100699493929190610645565b60405180910390f35b6100856100803660046104b1565b610168565b005b34801561009357600080fd5b5061009c6102dc565b60405161006991906105f6565b600060208190529081526040902080546001820154600283015460038401805493946001600160a01b039384169493909216926100e590610681565b80601f016020809104026020016040519081016040528092919081815260200182805461011190610681565b801561015e5780601f106101335761010080835404028352916020019161015e565b820191906000526020600020905b81548152906001019060200180831161014157829003601f168201915b5050505050905084565b604080516080810182523481523360208083018281526001600160a01b03868116858701908152606086018981526000958652858552969094208551815591516001830180546001600160a01b0319908116928416929092179055935160028301805490951691161790925592518051929391926101ec92600385019201906103db565b50905050600080826001600160a01b03163460405160006040518083038185875af1925050503d806000811461023e576040519150601f19603f3d011682016040523d82523d6000602084013e610243565b606091505b5091509150816102995760405162461bcd60e51b815260206004820181905260248201527f4661696c656420746f2073656e64204d6174696320746f205265636569766572604482015260640160405180910390fd5b7f9a9d23744f17bd0db34daddd6f3afb25e87cd18449118f83fb09afd1ed6c6d3b338486346040516102ce94939291906105b9565b60405180910390a150505050565b604080516080808201835260008083526020808401829052838501829052606080850181905233835282825291859020855193840186528054845260018101546001600160a01b0390811692850192909252600281015490911694830194909452600384018054939492939184019161035490610681565b80601f016020809104026020016040519081016040528092919081815260200182805461038090610681565b80156103cd5780601f106103a2576101008083540402835291602001916103cd565b820191906000526020600020905b8154815290600101906020018083116103b057829003601f168201915b505050505081525050905090565b8280546103e790610681565b90600052602060002090601f016020900481019282610409576000855561044f565b82601f1061042257805160ff191683800117855561044f565b8280016001018555821561044f579182015b8281111561044f578251825591602001919060010190610434565b5061045b92915061045f565b5090565b5b8082111561045b5760008155600101610460565b80356001600160a01b038116811461048b57600080fd5b919050565b6000602082840312156104a1578081fd5b6104aa82610474565b9392505050565b600080604083850312156104c3578081fd5b823567ffffffffffffffff808211156104da578283fd5b818501915085601f8301126104ed578283fd5b8135818111156104ff576104ff6106bc565b604051601f8201601f19908116603f01168101908382118183101715610527576105276106bc565b8160405282815288602084870101111561053f578586fd5b826020860160208301378560208483010152809650505050505061056560208401610474565b90509250929050565b60008151808452815b8181101561059357602081850181015186830182015201610577565b818111156105a45782602083870101525b50601f01601f19169290920160200192915050565b6001600160a01b038581168252841660208201526080604082018190526000906105e59083018561056e565b905082606083015295945050505050565b60006020825282516020830152602083015160018060a01b0380821660408501528060408601511660608501525050606083015160808084015261063d60a084018261056e565b949350505050565b8481526001600160a01b038481166020830152831660408201526080606082018190526000906106779083018461056e565b9695505050505050565b60028104600182168061069557607f821691505b602082108114156106b657634e487b7160e01b600052602260045260246000fd5b50919050565b634e487b7160e01b600052604160045260246000fdfea26469706673582212204795f02d13f77694d694ce0e39472e7daa5757ee517f521fb9de2d141c9b7a0764736f6c63430008020033",
  "linkReferences": {},
  "deployedLinkReferences": {}
}