{
  "_format": "hh-sol-artifact-1",
  "contractName": "NFTMinter",
  "sourceName": "contracts/Mint.sol",
  "abi": [
    {
      "inputs": [
        {
          "internalType": "string",
          "name": "tokenName",
          "type": "string"
        },
        {
          "internalType": "string",
          "name": "symbol",
          "type": "string"
        }
      ],
      "stateMutability": "nonpayable",
      "type": "constructor"
    },
    {
      "anonymous": false,
      "inputs": [
        {
          "indexed": true,
          "internalType": "address",
          "name": "owner",
          "type": "address"
        },
        {
          "indexed": true,
          "internalType": "address",
          "name": "approved",
          "type": "address"
        },
        {
          "indexed": true,
          "internalType": "uint256",
          "name": "tokenId",
          "type": "uint256"
        }
      ],
      "name": "Approval",
      "type": "event"
    },
    {
      "anonymous": false,
      "inputs": [
        {
          "indexed": true,
          "internalType": "address",
          "name": "owner",
          "type": "address"
        },
        {
          "indexed": true,
          "internalType": "address",
          "name": "operator",
          "type": "address"
        },
        {
          "indexed": false,
          "internalType": "bool",
          "name": "approved",
          "type": "bool"
        }
      ],
      "name": "ApprovalForAll",
      "type": "event"
    },
    {
      "anonymous": false,
      "inputs": [
        {
          "indexed": false,
          "internalType": "address",
          "name": "sender",
          "type": "address"
        },
        {
          "indexed": false,
          "internalType": "uint256",
          "name": "tokenId",
          "type": "uint256"
        }
      ],
      "name": "NewNFTMinted",
      "type": "event"
    },
    {
      "anonymous": false,
      "inputs": [
        {
          "indexed": true,
          "internalType": "address",
          "name": "from",
          "type": "address"
        },
        {
          "indexed": true,
          "internalType": "address",
          "name": "to",
          "type": "address"
        },
        {
          "indexed": true,
          "internalType": "uint256",
          "name": "tokenId",
          "type": "uint256"
        }
      ],
      "name": "Transfer",
      "type": "event"
    },
    {
      "inputs": [
        {
          "internalType": "address",
          "name": "to",
          "type": "address"
        },
        {
          "internalType": "uint256",
          "name": "tokenId",
          "type": "uint256"
        }
      ],
      "name": "approve",
      "outputs": [],
      "stateMutability": "nonpayable",
      "type": "function"
    },
    {
      "inputs": [
        {
          "internalType": "address",
          "name": "owner",
          "type": "address"
        }
      ],
      "name": "balanceOf",
      "outputs": [
        {
          "internalType": "uint256",
          "name": "",
          "type": "uint256"
        }
      ],
      "stateMutability": "view",
      "type": "function"
    },
    {
      "inputs": [
        {
          "internalType": "uint256",
          "name": "tokenId",
          "type": "uint256"
        }
      ],
      "name": "getApproved",
      "outputs": [
        {
          "internalType": "address",
          "name": "",
          "type": "address"
        }
      ],
      "stateMutability": "view",
      "type": "function"
    },
    {
      "inputs": [
        {
          "internalType": "address",
          "name": "owner",
          "type": "address"
        },
        {
          "internalType": "address",
          "name": "operator",
          "type": "address"
        }
      ],
      "name": "isApprovedForAll",
      "outputs": [
        {
          "internalType": "bool",
          "name": "",
          "type": "bool"
        }
      ],
      "stateMutability": "view",
      "type": "function"
    },
    {
      "inputs": [
        {
          "internalType": "address",
          "name": "owner",
          "type": "address"
        },
        {
          "internalType": "string",
          "name": "metadataURI",
          "type": "string"
        }
      ],
      "name": "mintToken",
      "outputs": [],
      "stateMutability": "nonpayable",
      "type": "function"
    },
    {
      "inputs": [],
      "name": "name",
      "outputs": [
        {
          "internalType": "string",
          "name": "",
          "type": "string"
        }
      ],
      "stateMutability": "view",
      "type": "function"
    },
    {
      "inputs": [
        {
          "internalType": "uint256",
          "name": "tokenId",
          "type": "uint256"
        }
      ],
      "name": "ownerOf",
      "outputs": [
        {
          "internalType": "address",
          "name": "",
          "type": "address"
        }
      ],
      "stateMutability": "view",
      "type": "function"
    },
    {
      "inputs": [
        {
          "internalType": "address",
          "name": "from",
          "type": "address"
        },
        {
          "internalType": "address",
          "name": "to",
          "type": "address"
        },
        {
          "internalType": "uint256",
          "name": "tokenId",
          "type": "uint256"
        }
      ],
      "name": "safeTransferFrom",
      "outputs": [],
      "stateMutability": "nonpayable",
      "type": "function"
    },
    {
      "inputs": [
        {
          "internalType": "address",
          "name": "from",
          "type": "address"
        },
        {
          "internalType": "address",
          "name": "to",
          "type": "address"
        },
        {
          "internalType": "uint256",
          "name": "tokenId",
          "type": "uint256"
        },
        {
          "internalType": "bytes",
          "name": "_data",
          "type": "bytes"
        }
      ],
      "name": "safeTransferFrom",
      "outputs": [],
      "stateMutability": "nonpayable",
      "type": "function"
    },
    {
      "inputs": [
        {
          "internalType": "address",
          "name": "operator",
          "type": "address"
        },
        {
          "internalType": "bool",
          "name": "approved",
          "type": "bool"
        }
      ],
      "name": "setApprovalForAll",
      "outputs": [],
      "stateMutability": "nonpayable",
      "type": "function"
    },
    {
      "inputs": [
        {
          "internalType": "bytes4",
          "name": "interfaceId",
          "type": "bytes4"
        }
      ],
      "name": "supportsInterface",
      "outputs": [
        {
          "internalType": "bool",
          "name": "",
          "type": "bool"
        }
      ],
      "stateMutability": "view",
      "type": "function"
    },
    {
      "inputs": [],
      "name": "symbol",
      "outputs": [
        {
          "internalType": "string",
          "name": "",
          "type": "string"
        }
      ],
      "stateMutability": "view",
      "type": "function"
    },
    {
      "inputs": [
        {
          "internalType": "uint256",
          "name": "tokenId",
          "type": "uint256"
        }
      ],
      "name": "tokenURI",
      "outputs": [
        {
          "internalType": "string",
          "name": "",
          "type": "string"
        }
      ],
      "stateMutability": "view",
      "type": "function"
    },
    {
      "inputs": [
        {
          "internalType": "address",
          "name": "from",
          "type": "address"
        },
        {
          "internalType": "address",
          "name": "to",
          "type": "address"
        },
        {
          "internalType": "uint256",
          "name": "tokenId",
          "type": "uint256"
        }
      ],
      "name": "transferFrom",
      "outputs": [],
      "stateMutability": "nonpayable",
      "type": "function"
    }
  ],
  "bytecode": "0x60806040523480156200001157600080fd5b5060405162001a2a38038062001a2a8339810160408190526200003491620001c7565b8151829082906200004d9060009060208501906200006e565b508051620000639060019060208401906200006e565b505050505062000281565b8280546200007c906200022e565b90600052602060002090601f016020900481019282620000a05760008555620000eb565b82601f10620000bb57805160ff1916838001178555620000eb565b82800160010185558215620000eb579182015b82811115620000eb578251825591602001919060010190620000ce565b50620000f9929150620000fd565b5090565b5b80821115620000f95760008155600101620000fe565b600082601f83011262000125578081fd5b81516001600160401b03808211156200014257620001426200026b565b604051601f8301601f19908116603f011681019082821181831017156200016d576200016d6200026b565b8160405283815260209250868385880101111562000189578485fd5b8491505b83821015620001ac57858201830151818301840152908201906200018d565b83821115620001bd57848385830101525b9695505050505050565b60008060408385031215620001da578182fd5b82516001600160401b0380821115620001f1578384fd5b620001ff8683870162000114565b9350602085015191508082111562000215578283fd5b50620002248582860162000114565b9150509250929050565b6002810460018216806200024357607f821691505b602082108114156200026557634e487b7160e01b600052602260045260246000fd5b50919050565b634e487b7160e01b600052604160045260246000fd5b61179980620002916000396000f3fe608060405234801561001057600080fd5b50600436106100ea5760003560e01c80636352211e1161008c578063a22cb46511610066578063a22cb465146101e1578063b88d4fde146101f4578063c87b56dd14610207578063e985e9c51461021a576100ea565b80636352211e146101a557806370a08231146101b857806395d89b41146101d9576100ea565b8063095ea7b3116100c8578063095ea7b31461015757806323b872dd1461016c5780633d02d0c91461017f57806342842e0e14610192576100ea565b806301ffc9a7146100ef57806306fdde0314610117578063081812fc1461012c575b600080fd5b6101026100fd366004611491565b610256565b60405190151581526020015b60405180910390f35b61011f6102aa565b60405161010e9190611579565b61013f61013a3660046114c9565b61033c565b6040516001600160a01b03909116815260200161010e565b61016a610165366004611468565b6103c9565b005b61016a61017a36600461131b565b6104df565b61016a61018d366004611409565b610510565b61016a6101a036600461131b565b610586565b61013f6101b33660046114c9565b6105a1565b6101cb6101c63660046112cf565b610618565b60405190815260200161010e565b61011f61069f565b61016a6101ef3660046113cf565b6106ae565b61016a610202366004611356565b6106bd565b61011f6102153660046114c9565b6106f5565b6101026102283660046112e9565b6001600160a01b03918216600090815260056020908152604080832093909416825291909152205460ff1690565b60006001600160e01b031982166380ac58cd60e01b148061028757506001600160e01b03198216635b5e139f60e01b145b806102a257506301ffc9a760e01b6001600160e01b03198316145b90505b919050565b6060600080546102b99061169e565b80601f01602080910402602001604051908101604052809291908181526020018280546102e59061169e565b80156103325780601f1061030757610100808354040283529160200191610332565b820191906000526020600020905b81548152906001019060200180831161031557829003601f168201915b5050505050905090565b60006103478261087c565b6103ad5760405162461bcd60e51b815260206004820152602c60248201527f4552433732313a20617070726f76656420717565727920666f72206e6f6e657860448201526b34b9ba32b73a103a37b5b2b760a11b60648201526084015b60405180910390fd5b506000908152600460205260409020546001600160a01b031690565b60006103d4826105a1565b9050806001600160a01b0316836001600160a01b031614156104425760405162461bcd60e51b815260206004820152602160248201527f4552433732313a20617070726f76616c20746f2063757272656e74206f776e656044820152603960f91b60648201526084016103a4565b336001600160a01b038216148061045e575061045e8133610228565b6104d05760405162461bcd60e51b815260206004820152603860248201527f4552433732313a20617070726f76652063616c6c6572206973206e6f74206f7760448201527f6e6572206e6f7220617070726f76656420666f7220616c6c000000000000000060648201526084016103a4565b6104da8383610899565b505050565b6104e93382610907565b6105055760405162461bcd60e51b81526004016103a4906115de565b6104da8383836109f0565b61051e600780546001019055565b600061052960075490565b90506105358382610b8c565b61053f8183610ba6565b604080516001600160a01b0385168152602081018390527f1c05098ed1ff38e6238d2b1b04b2c7977d4c94ce651bda6473f9dba8dbf01da0910160405180910390a1505050565b6104da838383604051806020016040528060008152506106bd565b6000818152600260205260408120546001600160a01b0316806102a25760405162461bcd60e51b815260206004820152602960248201527f4552433732313a206f776e657220717565727920666f72206e6f6e657869737460448201526832b73a103a37b5b2b760b91b60648201526084016103a4565b60006001600160a01b0382166106835760405162461bcd60e51b815260206004820152602a60248201527f4552433732313a2062616c616e636520717565727920666f7220746865207a65604482015269726f206164647265737360b01b60648201526084016103a4565b506001600160a01b031660009081526003602052604090205490565b6060600180546102b99061169e565b6106b9338383610c31565b5050565b6106c73383610907565b6106e35760405162461bcd60e51b81526004016103a4906115de565b6106ef84848484610d00565b50505050565b60606107008261087c565b6107665760405162461bcd60e51b815260206004820152603160248201527f45524337323155524953746f726167653a2055524920717565727920666f72206044820152703737b732bc34b9ba32b73a103a37b5b2b760791b60648201526084016103a4565b6000828152600660205260408120805461077f9061169e565b80601f01602080910402602001604051908101604052809291908181526020018280546107ab9061169e565b80156107f85780601f106107cd576101008083540402835291602001916107f8565b820191906000526020600020905b8154815290600101906020018083116107db57829003601f168201915b505050505090506000610825604080518082019091526007815266697066733a2f2f60c81b602082015290565b9050805160001415610839575090506102a5565b81511561086b57808260405160200161085392919061150d565b604051602081830303815290604052925050506102a5565b61087484610d33565b949350505050565b6000908152600260205260409020546001600160a01b0316151590565b600081815260046020526040902080546001600160a01b0319166001600160a01b03841690811790915581906108ce826105a1565b6001600160a01b03167f8c5be1e5ebec7d5bd14f71427d1e84f3dd0314c0f7b2291e5b200ac8c7c3b92560405160405180910390a45050565b60006109128261087c565b6109735760405162461bcd60e51b815260206004820152602c60248201527f4552433732313a206f70657261746f7220717565727920666f72206e6f6e657860448201526b34b9ba32b73a103a37b5b2b760a11b60648201526084016103a4565b600061097e836105a1565b9050806001600160a01b0316846001600160a01b031614806109c557506001600160a01b0380821660009081526005602090815260408083209388168352929052205460ff165b806108745750836001600160a01b03166109de8461033c565b6001600160a01b031614949350505050565b826001600160a01b0316610a03826105a1565b6001600160a01b031614610a675760405162461bcd60e51b815260206004820152602560248201527f4552433732313a207472616e736665722066726f6d20696e636f72726563742060448201526437bbb732b960d91b60648201526084016103a4565b6001600160a01b038216610ac95760405162461bcd60e51b8152602060048201526024808201527f4552433732313a207472616e7366657220746f20746865207a65726f206164646044820152637265737360e01b60648201526084016103a4565b610ad4600082610899565b6001600160a01b0383166000908152600360205260408120805460019290610afd90849061165b565b90915550506001600160a01b0382166000908152600360205260408120805460019290610b2b90849061162f565b909155505060008181526002602052604080822080546001600160a01b0319166001600160a01b0386811691821790925591518493918716917fddf252ad1be2c89b69c2b068fc378daa952ba7f163c4a11628f55a4df523b3ef91a46104da565b6106b9828260405180602001604052806000815250610e1a565b610baf8261087c565b610c125760405162461bcd60e51b815260206004820152602e60248201527f45524337323155524953746f726167653a2055524920736574206f66206e6f6e60448201526d32bc34b9ba32b73a103a37b5b2b760911b60648201526084016103a4565b600082815260066020908152604090912082516104da928401906111a9565b816001600160a01b0316836001600160a01b03161415610c935760405162461bcd60e51b815260206004820152601960248201527f4552433732313a20617070726f766520746f2063616c6c65720000000000000060448201526064016103a4565b6001600160a01b03838116600081815260056020908152604080832094871680845294825291829020805460ff191686151590811790915591519182527f17307eab39ab6107e8899845ad3d59bd9653f200f220920489ca2b5937696c31910160405180910390a3505050565b610d0b8484846109f0565b610d1784848484610e4d565b6106ef5760405162461bcd60e51b81526004016103a49061158c565b6060610d3e8261087c565b610da25760405162461bcd60e51b815260206004820152602f60248201527f4552433732314d657461646174613a2055524920717565727920666f72206e6f60448201526e3732bc34b9ba32b73a103a37b5b2b760891b60648201526084016103a4565b6000610dc8604080518082019091526007815266697066733a2f2f60c81b602082015290565b90506000815111610de85760405180602001604052806000815250610e13565b80610df284610f5a565b604051602001610e0392919061150d565b6040516020818303038152906040525b9392505050565b610e248383611075565b610e316000848484610e4d565b6104da5760405162461bcd60e51b81526004016103a49061158c565b60006001600160a01b0384163b15610f4f57604051630a85bd0160e11b81526001600160a01b0385169063150b7a0290610e9190339089908890889060040161153c565b602060405180830381600087803b158015610eab57600080fd5b505af1925050508015610edb575060408051601f3d908101601f19168201909252610ed8918101906114ad565b60015b610f35573d808015610f09576040519150601f19603f3d011682016040523d82523d6000602084013e610f0e565b606091505b508051610f2d5760405162461bcd60e51b81526004016103a49061158c565b805181602001fd5b6001600160e01b031916630a85bd0160e11b149050610874565b506001949350505050565b606081610f7f57506040805180820190915260018152600360fc1b60208201526102a5565b8160005b8115610fa95780610f93816116d9565b9150610fa29050600a83611647565b9150610f83565b60008167ffffffffffffffff811115610fd257634e487b7160e01b600052604160045260246000fd5b6040519080825280601f01601f191660200182016040528015610ffc576020820181803683370190505b5090505b84156108745761101160018361165b565b915061101e600a866116f4565b61102990603061162f565b60f81b81838151811061104c57634e487b7160e01b600052603260045260246000fd5b60200101906001600160f81b031916908160001a90535061106e600a86611647565b9450611000565b6001600160a01b0382166110cb5760405162461bcd60e51b815260206004820181905260248201527f4552433732313a206d696e7420746f20746865207a65726f206164647265737360448201526064016103a4565b6110d48161087c565b156111215760405162461bcd60e51b815260206004820152601c60248201527f4552433732313a20746f6b656e20616c7265616479206d696e7465640000000060448201526064016103a4565b6001600160a01b038216600090815260036020526040812080546001929061114a90849061162f565b909155505060008181526002602052604080822080546001600160a01b0319166001600160a01b03861690811790915590518392907fddf252ad1be2c89b69c2b068fc378daa952ba7f163c4a11628f55a4df523b3ef908290a46106b9565b8280546111b59061169e565b90600052602060002090601f0160209004810192826111d7576000855561121d565b82601f106111f057805160ff191683800117855561121d565b8280016001018555821561121d579182015b8281111561121d578251825591602001919060010190611202565b5061122992915061122d565b5090565b5b80821115611229576000815560010161122e565b600067ffffffffffffffff8084111561125d5761125d611734565b604051601f8501601f19908116603f0116810190828211818310171561128557611285611734565b8160405280935085815286868601111561129e57600080fd5b858560208301376000602087830101525050509392505050565b80356001600160a01b03811681146102a557600080fd5b6000602082840312156112e0578081fd5b610e13826112b8565b600080604083850312156112fb578081fd5b611304836112b8565b9150611312602084016112b8565b90509250929050565b60008060006060848603121561132f578081fd5b611338846112b8565b9250611346602085016112b8565b9150604084013590509250925092565b6000806000806080858703121561136b578081fd5b611374856112b8565b9350611382602086016112b8565b925060408501359150606085013567ffffffffffffffff8111156113a4578182fd5b8501601f810187136113b4578182fd5b6113c387823560208401611242565b91505092959194509250565b600080604083850312156113e1578182fd5b6113ea836112b8565b9150602083013580151581146113fe578182fd5b809150509250929050565b6000806040838503121561141b578182fd5b611424836112b8565b9150602083013567ffffffffffffffff81111561143f578182fd5b8301601f8101851361144f578182fd5b61145e85823560208401611242565b9150509250929050565b6000806040838503121561147a578182fd5b611483836112b8565b946020939093013593505050565b6000602082840312156114a2578081fd5b8135610e138161174a565b6000602082840312156114be578081fd5b8151610e138161174a565b6000602082840312156114da578081fd5b5035919050565b600081518084526114f9816020860160208601611672565b601f01601f19169290920160200192915050565b6000835161151f818460208801611672565b835190830190611533818360208801611672565b01949350505050565b6001600160a01b038581168252841660208201526040810183905260806060820181905260009061156f908301846114e1565b9695505050505050565b600060208252610e1360208301846114e1565b60208082526032908201527f4552433732313a207472616e7366657220746f206e6f6e20455243373231526560408201527131b2b4bb32b91034b6b83632b6b2b73a32b960711b606082015260800190565b60208082526031908201527f4552433732313a207472616e736665722063616c6c6572206973206e6f74206f6040820152701ddb995c881b9bdc88185c1c1c9bdd9959607a1b606082015260800190565b6000821982111561164257611642611708565b500190565b6000826116565761165661171e565b500490565b60008282101561166d5761166d611708565b500390565b60005b8381101561168d578181015183820152602001611675565b838111156106ef5750506000910152565b6002810460018216806116b257607f821691505b602082108114156116d357634e487b7160e01b600052602260045260246000fd5b50919050565b60006000198214156116ed576116ed611708565b5060010190565b6000826117035761170361171e565b500690565b634e487b7160e01b600052601160045260246000fd5b634e487b7160e01b600052601260045260246000fd5b634e487b7160e01b600052604160045260246000fd5b6001600160e01b03198116811461176057600080fd5b5056fea26469706673582212209ce52f714d95c6828756e0478bdb6b467fd3b2f1d2f5a3e66936db0c39cdf43264736f6c63430008020033",
  "linkReferences": {},
  "deployedLinkReferences": {}
}